:020000040000FA
:040000006AEF2EF085
:105652001E000100080ED56ED58E1200070E93169D
:105662000F0E95121200D5C001F0D6C002F0120042
:10567200000E016E012A180E016442EF2BF044EF76
:105682002BF03BEF2BF01200000E026E39EC2BF0E8
:10569200022A310E026450EF2BF052EF2BF047EF4B
:1056A2002BF0120001500302F3CF05F0F4CF06F005
:1056B20001500402F350062602500302F35006265C
:1056C20005C001F006C002F0120000000000000454
:1056D2000E1B0004040000040E1B00000000000466
:1056E200040000040400000000000A150E1100006E
:1056F20000000A150E0A000000000A150E1100042F
:1057020004000A150E0A00040400000E0D6E99EF43
:105712002BF00D5009240B6E000E0A200C6E0BC0EC
:10572200F6FF0CC0F7FF0800F550AEEC2BF00D2A87
:105732000D5009240B6E000E0A200C6E0BC0F6FFF2
:105742000CC0F7FF0800F5500009D8A4ABEF2BF00E
:10575200ADEF2BF08AEF2BF01200076E83CF08F02B
:10576200000E956E000E026E220E016E000E046E89
:10577200010E036ECAEC32F007C083FF000E026E08
:10578200210E016E000E046E010E036ECAEC32F0A1
:10579200000E026E210E016E000E046E000E036EEC
:1057A200CAEC32F008C083FF39EC2BF01200000E75
:1057B200026E020E016E000E046E000E036EF1EC1C
:1057C20033F0000E026E030E016E000E046E000E28
:1057D200036EF1EC33F0000E026E040E016E000E49
:1057E200046E000E036EF1EC33F0000E026E050E35
:1057F200016E000E046E000E036EF1EC33F0000E2B
:10580200956E12000E6E0D50D8A40AEF2CF00CEF1C
:105812002CF00EEF2CF00EC07AF00D04D8A414EF89
:105822002CF016EF2CF018EF2CF00EC079F0020ECF
:105832000D18D8A41FEF2CF021EF2CF023EF2CF041
:105842000EC078F0030E0D18D8A42AEF2CF02CEF1E
:105852002CF02EEF2CF00EC077F012000A500B1035
:10586200D8B436EF2CF038EF2CF05CEF2CF0010EB0
:105872000C6E40EF2CF0D8900A360B360C2A0BAE89
:1058820045EF2CF047EF2CF03CEF2CF00A50085C6F
:105892000B500958D8A050EF2CF052EF2CF056EFD5
:1058A2002CF00A50085E0B50095AD8900B320A327B
:1058B2000C2E47EF2CF008C008F009C009F01200C6
:1058C200000E096E000E0A6E000E0B6E000E0C6EBC
:1058D20001A06EEF2CF070EF2CF078EF2CF0055059
:1058E200092606500A2207500B2208500C22D89093
:1058F2000536063607360836D890043203320232AD
:1059020001320150021003100410D8A48BEF2CF0C6
:105912008DEF2CF069EF2CF009C001F00AC002F003
:105922000BC003F00CC004F01200D8C001F0D9C0C3
:1059320002F0DAC003F0DBC004F02D0E056E7F0E1C
:10594200066E950E076E4C0E086E61EC2CF0010E81
:1059520001240001D86F000E0220D96F000E03202F
:10596200DA6F000E0420DB6FD8C00FF0D9C010F040
:10597200DAC011F0DBC012F0120EC5EF2CF0D89095
:105982001232113210320F32E82EC0EF2CF00FC05B
:105992000DF010C00EF01200010E2BEC2EF0F10EE5
:1059A200096E7E0E0A6E86EC2BF0000E096E010E59
:1059B200A9EC2EF0BE0E096E7E0E0A6E86EC2BF05E
:1059C200000E096E020EA9EC2EF0EB0E096E7F0E90
:1059D2000A6E86EC2BF072C019F073C01AF03FEC1D
:1059E2002DF0330E096E7E0E0A6E86EC2BF0000E41
:1059F200096E030EA9EC2EF0F10E096E7E0E0A6EF0
:105A020086EC2BF003EF2DF01200010E2BEC2EF0A2
:105A1200F10E096E7E0E0A6E86EC2BF0000E096EF8
:105A2200010EA9EC2EF0AD0E096E7E0E0A6E86EC0A
:105A32002BF0000E096E020EA9EC2EF0EB0E096E91
:105A42007F0E0A6E86EC2BF072C019F073C01AF04A
:105A52003FEC2DF0330E096E7E0E0A6E86EC2BF0B3
:105A6200000E096E030EA9EC2EF0F10E096E7E0EE9
:105A72000A6E86EC2BF03CEF2DF01200030E1C6E2A
:105A8200E80E1B6E6BEF2DF01BC003F01CC004F080
:105A920019C001F01AC002F089EC2FF001C013F016
:105AA20002C014F0000E166E0A0E156E31EC2FF0C5
:105AB2001350300FAEEC2BF01BC001F01CC002F0F3
:105AC200000E046E0A0E036E89EC2FF001C01BF06B
:105AD20002C01CF01CBE78EF2DF01C5006E11B0426
:105AE200D8B076EF2DF078EF2DF045EF2DF01200C3
:105AF200000E066E000E056E03500410D8B484EF3B
:105B02002DF086EF2DF0AEEF2DF0010E076E8EEF29
:105B12002DF0D89003360436072A04AE93EF2DF009
:105B220095EF2DF08AEF2DF0D8900536063603500A
:105B3200015C04500258D8A0A1EF2DF0A3EF2DF084
:105B4200A8EF2DF00350015E0450025A0580D89050
:105B520004320332072E95EF2DF005C001F006C086
:105B620002F01200000E026E220E016E000E046E92
:105B7200000E036EF1EC33F0000E026E210E016E88
:105B8200000E046E000E036EF1EC33F0000E956E03
:105B920045EC2BF045EC2BF045EC2BF045EC2BF0D3
:105BA20045EC2BF0340E2BEC2EF045EC2BF045ECB3
:105BB2002BF0340E2BEC2EF045EC2BF0340E2BECAC
:105BC2002EF0340E2BEC2EF0060E2BEC2EF00F0ED8
:105BD2002BEC2EF0010E2BEC2EF01200000E0F6EAD
:105BE20016EF2EF00F5009240B6E000E0A200C6ED9
:105BF2000BC0F6FF0CC0F7FF0800F550AEEC2BF01F
:105C0200000E0E6E000E0D6E0D4A0E2A0EBE13EF22
:105C12002EF0200E0D5C4E0E0E58D8A013EF2EF073
:105C220015EF2EF005EF2EF00F2A0F5009240B6E00
:105C3200000E0A200C6E0BC0F6FF0CC0F7FF080026
:105C4200F5500009D8A428EF2EF02AEF2EF0F3EF3A
:105C52002DF01200086E83CF07F0000E956E000E35
:105C6200026E220E016E000E046E000E036ECAEC6E
:105C720032F008C083FF000E026E210E016E000E8C
:105C8200046E010E036ECAEC32F0000E026E210E9B
:105C9200016E000E046E000E036ECAEC32F007C0F5
:105CA20083FF020E0818D8B459EF2EF05BEF2EF0E6
:105CB20063EF2EF00804D8A461EF2EF063EF2EF00C
:105CC20067EF2EF045EC2BF069EF2EF039EC2BF05C
:105CD2001200CC0EF66E560EF76E000EF86E01EE46
:105CE200B0F010EE40F00900F5CFEEFFE550E150C4
:105CF200FAE1520EF66E560EF76E000EF86E0900BD
:105D0200F5CFDCF00900F5CFDDF0540EF66E560E3D
:105D1200F76E000EF86E0900F5CF7EF00900F5CFA0
:105D22007FF001EE00F0B00EEE6AE806FDE100EE53
:105D320080F05C0EEE6AE806FDE100EE72F00C0EF9
:105D4200EE6AE806FDE1000EF86E0001EAEF2EF0C1
:105D52000C6ECCEF2EF00950800F0D6E0D502BEC17
:105D62002EF0E9EF2EF00950C00F0D6E0D502BEC06
:105D72002EF0E9EF2EF00950900F0D6E0D502BEC26
:105D82002EF0E9EF2EF00950D00F0D6E0D502BECD6
:105D92002EF0E9EF2EF00C500A6E0B6A0B50000A3F
:105DA200D8B4D6EF2EF0E9EF2EF00A50000AD8B49C
:105DB200ACEF2EF0010AD8B4B4EF2EF0030AD8B437
:105DC200BCEF2EF0010AD8B4C4EF2EF0E9EF2EF0AA
:105DD200120021EEB0F010EE32F03F0EDBCFE3FF07
:105DE200E806FCE2B3EC2DF0D8EC2BF02FEC2BF014
:105DF2002BEC2BF00F0E2BEC2EF00C0E2BEC2EF0CE
:105E0200400E2BEC2EF0000E7D6E3F0E7D640CEFEB
:105E12002FF00EEF2FF010EF2FF01CEF2FF0320EBD
:105E22007D24D96EDA6A000EDA22DF50AEEC2BF056
:105E32007D2A06EF2FF065EC37F0010E2BEC2EF0E9
:105E42007EC001F07FC002F0BFEC31F0EBEC2FF02E
:105E520029EC3BF018EC35F027EF2FF000EF00F0C3
:105E6200000E186E14BE3AEF2FF038EF2FF040EF0D
:105E72002FF0136C141ED8B0142A010E186E16BE21
:105E820047EF2FF045EF2FF04BEF2FF0156C161E5A
:105E9200D8B0162A15501610D8B452EF2FF054EF7E
:105EA2002FF078EF2FF0010E176E5CEF2FF0D890E5
:105EB20015361636172A16AE61EF2FF063EF2FF064
:105EC20058EF2FF01550135C16501458D8A06CEFF1
:105ED2002FF06EEF2FF072EF2FF01550135E165069
:105EE200145AD89016321532172E63EF2FF018502D
:105EF200D8B47EEF2FF080EF2FF084EF2FF0136CE9
:105F0200141ED8B0142A13C013F014C014F01200D7
:105F1200000E066E04BE92EF2FF090EF2FF098EF76
:105F22002FF0036C041ED8B0042A010E066E02BEC6
:105F32009FEF2FF09DEF2FF0A5EF2FF0016C021EC7
:105F4200D8B0022A010E061A000E086E000E076E65
:105F520003500410D8B4B0EF2FF0B2EF2FF0DAEF05
:105F62002FF0010E056EBAEF2FF0D89003360436EB
:105F7200052A04AEBFEF2FF0C1EF2FF0B6EF2FF0DE
:105F8200D890073608360350015C04500258D8A056
:105F9200CDEF2FF0CFEF2FF0D4EF2FF00350015EB3
:105FA2000450025A0780D89004320332052EC1EF02
:105FB2002FF00650D8B4E0EF2FF0E2EF2FF0E6EF2B
:105FC2002FF0076C081ED8B0082A07C001F008C0DD
:105FD20002F0120000EC31F034EC2BF07450011896
:105FE20007E175500218D8A4F9EF2FF0FBEF2FF05C
:105FF20007EF30F00001D05109E1090ECF5DD8A0C2
:1060020005EF30F007EF30F055EF30F034EC2BF0C5
:1060120001C074F002C075F0000E0001D06F000ED6
:10602200CF6F74A617EF30F019EF30F029EF30F090
:10603200C4BF24EF30F0C45108E1C305D8A024EF57
:1060420030F026EF30F029EF30F0C307D8A0C407B4
:1060520074AE2EEF30F030EF30F040EF30F0C4BFCE
:106062003EEF30F0C45107E10F0EC35DD8B03CEFF4
:1060720030F03EEF30F040EF30F0C34BC42B74A44D
:1060820045EF30F047EF30F057EF30F0010EC16FBF
:10609200C3C0C7F0C4C0C8F0FF0EC525C96FFF0E4C
:1060A200C621CA6F57EF30F0CF4BD02B1200000E33
:1060B200956E000E026E020E016E000E046E000E50
:1060C200036ECAEC32F0000E026E030E016E000E79
:1060D200046E000E036ECAEC32F0000E026E040E65
:1060E200016E000E046E000E036ECAEC32F0000E5A
:1060F200026E050E016E000E046E000E036ECAECF7
:1061020032F0000E836EE2EF30F0150E7A24F66E56
:10611200F76A7E0EF7220800F5CF83FF000E026EAB
:10612200020E016E000E046E010E036ECAEC32F016
:10613200010E7B6EFFEF30F0150E7924F66EF76AD2
:106142007E0EF7220800F5CF83FF000E026E030ECB
:10615200016E000E046E010E036ECAEC32F0020EE6
:106162007B6EFFEF30F0150E7824F66EF76A7E0E26
:10617200F7220800F5CF83FF000E026E040E016EB7
:10618200000E046E010E036ECAEC32F0030E7B6E3B
:10619200FFEF30F0150E7724F66EF76A7E0EF722C7
:1061A2000800F5CF83FF000E026E050E016E000E91
:1061B200046E010E036ECAEC32F0000E7B6EFFEF2E
:1061C20030F07B50076E086A0850000AD8B4ECEF32
:1061D20030F0DEEF30F00750000AD8B486EF30F02E
:1061E200010AD8B49DEF30F0030AD8B4B4EF30F00E
:1061F200010AD8B4CBEF30F0DEEF30F0120083CFDB
:1062020006F00F0E9512000E0A6EF80E93160AC0D3
:1062120001F0010E026E012A11EF31F0D890023620
:10622200012E0FEF31F002509312070E81120AC0B5
:1062320001F0010E026E012A21EF31F0D8900236F0
:10624200012E1FEF31F00250FF0A8116000E086E78
:10625200000E076E074A082A08BE39EF31F00850CF
:1062620009E10A0E075CD8A039EF31F03BEF31F0BB
:106272002BEF31F0000E096E09C001F0010E026E23
:10628200012A46EF31F0D8900236012E44EF31F068
:10629200025083140009D8A451EF31F053EF31F0CA
:1062A2006CEF31F00A50040DF3500924016E010E17
:1062B200026E000E036E012A62EF31F0D8900236B0
:1062C2000336012E5FEF31F002500001D313035069
:1062D200D41387EF31F00A50040DF3500924016EF4
:1062E200010E026E000E036E012A7BEF31F0D89090
:1062F20002360336012E78EF31F0021C046E031CC5
:10630200056E04500001D3170550D417092A030E55
:1063120009648EEF31F090EF31F03DEF31F00A2A4F
:10632200020E0A6497EF31F099EF31F006EF31F087
:10633200D351D11907E1D451D219D8A4A3EF31F026
:10634200A5EF31F0A8EF31F07C06AEEF31F00A0E86
:106352007C6ED3C0D1F0D4C0D2F07C50D8A4B4EFBC
:1063620031F0B6EF31F0BAEF31F0D1C0D5F0D2C092
:10637200D6F006C083FF000E956E120001C07EF0BB
:1063820002C07FF0000E0001C46F080EC36F000E42
:10639200C66F070EC56F010EC06F000EC86F080EE4
:1063A200C76F000ECA6F060EC96F000EC16F000ED6
:1063B2007D6E0F0E7D64E0EF31F0E2EF31F0E4EF3D
:1063C20031F0B5EF32F0080E7D60EAEF31F0ECEF1C
:1063D20031F048EF32F07D500B0D030EF324D96EED
:1063E200010EF420DA6E7D50020D010EF326000E2E
:1063F200F422F3CFDEFFF4CFDDFF7D500B0D050E4F
:10640200F324D96E010EF420DA6E000EDE6E000E59
:10641200DD6E7D500B0D070EF324D96E010EF420B4
:10642200DA6E7D50020D010EF326000EF422F3CF38
:10643200DEFFF4CFDDFF7D500B0D090EF324D96E84
:10644200010EF420DA6E010EDE6E000EDD6E7D505E
:106452000B0D000EF324D96E010EF420DA6E010E3C
:10646200DF6E7D500B0D020EF324D96E010EF42067
:10647200DA6E010EDF6E7D500B0D010EF324D96E24
:10648200010EF420DA6E000EDF6EB2EF32F0F00E83
:10649200036EFF0E046E7D50056E066AD8900536B7
:1064A200063603500526045006227D500B0D030EBE
:1064B200F324D96E010EF420DA6E05C0DEFF06C0A9
:1064C200DDFF7D500B0D050EF324D96E010EF42075
:1064D200DA6E020EDE6E000EDD6EF00E036EFF0E41
:1064E200046E7D50056E066AD89005360636035056
:1064F2000526045006227D500B0D070EF324D96E9B
:10650200010EF420DA6E05C0DEFF06C0DDFF7D500D
:106512000B0D090EF324D96E010EF420DA6E030E70
:10652200DE6E000EDD6E7D500B0D000EF324D96E73
:10653200010EF420DA6E010EDF6E7D500B0D020E9D
:10654200F324D96E010EF420DA6E010EDF6E7D5057
:106552000B0D010EF324D96E010EF420DA6E000E3B
:10656200DF6E7D2ADAEF31F001C003F002C004F0E1
:10657200D8900336043603501E080001DC6F045025
:10658200D8A0E82A0008DD6F000ECC6F100ECB6F8A
:10659200120002BED8EF32F0025007E1080E015C91
:1065A200D8B0D6EF32F0D8EF32F002EF33F003502A
:1065B2000410D8B4DFEF32F0E1EF32F0F1EF32F055
:1065C20001C005F0010E066E052AEAEF32F0D890FE
:1065D2000636052EE8EF32F006508012F0EF33F067
:1065E20001C005F0010E066E052AFAEF32F0D890CE
:1065F2000636052EF8EF32F00650FF0A8016F0EF4D
:1066020033F002BE10EF33F0025007E1100E015CCE
:10661200D8B00EEF33F010EF33F03EEF33F0F80E58
:106622000126FF0E022203500410D8B41BEF33F0F0
:106632001DEF33F02DEF33F001C005F0010E066EB1
:10664200052A26EF33F0D8900636052E24EF33F0D4
:1066520006508112F0EF33F001C005F0010E066E14
:10666200052A36EF33F0D8900636052E34EF33F094
:106672000650FF0A8116F0EF33F002BE4CEF33F002
:10668200025007E1180E015CD8B04AEF33F04CEF2C
:1066920033F07AEF33F0F00E0126FF0E02220350A0
:1066A2000410D8B457EF33F059EF33F069EF33F0F9
:1066B20001C005F0010E066E052A62EF33F0D89094
:1066C2000636052E60EF33F006508212F0EF33F0FB
:1066D20001C005F0010E066E052A72EF33F0D89064
:1066E2000636052E70EF33F00650FF0A8216F0EFE1
:1066F20033F002BE88EF33F0025007E1200E015C56
:10670200D8B086EF33F088EF33F0B6EF33F0E80E0F
:106712000126FF0E022203500410D8B493EF33F087
:1067220095EF33F0A5EF33F001C005F0010E066ED0
:10673200052A9EEF33F0D8900636052E9CEF33F0F3
:1067420006508312F0EF33F001C005F0010E066E21
:10675200052AAEEF33F0D8900636052EACEF33F0B3
:106762000650FF0A8316F0EF33F002BEC4EF33F097
:10677200025007E1280E015CD8B0C2EF33F0C4EF3B
:1067820033F0F0EF33F0E00E0126FF0E0222035049
:106792000410D8B4CFEF33F0D1EF33F0E1EF33F0A0
:1067A20001C005F0010E066E052ADAEF33F0D8902B
:1067B2000636052ED8EF33F006508412F0EF33F090
:1067C20001C005F0010E066E052AEAEF33F0D890FB
:1067D2000636052EE8EF33F00650FF0A8416120043
:1067E20002BEFFEF33F0025007E1080E015CD8B0A1
:1067F200FDEF33F0FFEF33F029EF34F003500410D4
:10680200D8B406EF34F008EF34F018EF34F001C0DA
:1068120005F0010E066E052A11EF34F0D890063607
:10682200052E0FEF34F00650921217EF35F001C02B
:1068320005F0010E066E052A21EF34F0D8900636D7
:10684200052E1FEF34F00650FF0A921617EF35F0AF
:1068520002BE37EF34F0025007E1100E015CD8B0EF
:1068620035EF34F037EF34F065EF34F003500410B5
:10687200D8B43EEF34F040EF34F052EF34F001C0C0
:1068820005F0F80E0526010E066E052A4BEF34F0D0
:10689200D8900636052E49EF34F00650931217EFC2
:1068A20035F001C005F0F80E0526010E066E052A28
:1068B2005DEF34F0D8900636052E5BEF34F00650CB
:1068C200FF0A931617EF35F002BE73EF34F0025051
:1068D20007E1180E015CD8B071EF34F073EF34F0B9
:1068E200A1EF34F003500410D8B47AEF34F07CEF07
:1068F20034F08EEF34F001C005F0F00E0526010EE3
:10690200066E052A87EF34F0D8900636052E85EFFD
:1069120034F00650941217EF35F001C005F0F00E76
:106922000526010E066E052A99EF34F0D890063638
:10693200052E97EF34F00650FF0A941617EF35F044
:1069420002BEAFEF34F0025007E1200E015CD8B076
:10695200ADEF34F0AFEF34F0DDEF34F0035004105C
:10696200D8B4B6EF34F0B8EF34F0CAEF34F001C067
:1069720005F0E80E0526010E066E052AC3EF34F077
:10698200D8900636052EC1EF34F00650951217EF57
:1069920035F001C005F0E80E0526010E066E052A47
:1069A200D5EF34F0D8900636052ED3EF34F00650EA
:1069B200FF0A951617EF35F002BEEBEF34F00250E6
:1069C20007E1280E015CD8B0E9EF34F0EBEF34F0C8
:1069D20017EF35F003500410D8B4F2EF34F0F4EFAF
:1069E20034F006EF35F001C005F0E00E0526010E89
:1069F200066E052AFFEF34F0D8900636052EFDEF1D
:106A020034F00650961217EF35F001C005F0E00E93
:106A12000526010E066E052A11EF35F0D8900636CE
:106A2200052E0FEF35F00650FF0A961612000001F0
:106A3200C151D8B41FEF35F021EF35F091EF35F0A9
:106A4200C951CA11D8A428EF35F02AEF35F02EEF3C
:106A520035F0000EC16F31EF35F0C907D8A0CA0773
:106A6200000E7D6E0F0E7D6439EF35F03BEF35F091
:106A72003DEF35F091EF35F07D500B0D030EF32411
:106A8200D96E010EF420DA6EDE500001C71907E15B
:106A9200DE50C819D8A450EF35F052EF35F08EEF22
:106AA20035F07D500B0D050EF324D96E010EF42046
:106AB200DA6EDE50C91907E1DE50CA19D8A464EFB4
:106AC20035F066EF35F08EEF35F07D500B0D000E90
:106AD200F324D96E010EF420DA6EDF50D8B474EFCD
:106AE20035F076EF35F08EEF35F07D500B0D000E60
:106AF200F324D96E010EF420DA6E000EDF6E7EC032
:106B020001F07FC002F0000E046E0A0E036E53EC19
:106B12002BF001507226025073227D2A33EF35F09A
:106B2200000E7D6E0F0E7D6499EF35F09BEF35F010
:106B32009DEF35F0F3EF35F07D500B0D010EF32490
:106B4200D96E010EF420DA6EDF50D8B4ABEF35F017
:106B5200ADEF35F0F0EF35F07D500B0D090EF3245B
:106B6200D96E010EF420DA6E070EDE6E000EDD6EB7
:106B72007D500B0D010EF324D96E010EF420DA6E56
:106B8200000EDF6E7D500B0D070EF324D96E010E41
:106B9200F420DA6E0001C351DE1807E1C451DE1899
:106BA200D8A4D6EF35F0D8EF35F0F0EF35F07D50C0
:106BB2000B0D090EF324D96E010EF420DA6EC551C5
:106BC200DE1807E1C651DE18D8A4EAEF35F0ECEF83
:106BD20035F0F0EF35F0000EC06FCDEC2CF07D2AD1
:106BE20093EF35F0000E0001CC6F000ECB6F000E5C
:106BF2007D6E0F0E7D6400EF36F002EF36F004EF8B
:106C020036F01AEF36F07D500B0D000EF324D96EDC
:106C1200010EF420DA6EDF50D8B412EF36F014EF22
:106C220036F017EF36F00001CB4BCC2B7D2AFAEF72
:106C320035F00001CD51CE11D8A422EF36F024EF69
:106C420036F02DEF37F0DCC0CDF0DDC0CEF0000E17
:106C52007D6E0F0E7D6430EF36F032EF36F034EF9A
:106C620036F030EF37F07D500B0D000EF324D96E65
:106C7200010EF420DA6EDF50D8B442EF36F044EF62
:106C820036F02AEF37F0080E7D604AEF36F04CEF0F
:106C920036F08AEF36F07D500B0D020EF324D96EDA
:106CA200010EF420DA6EDF50D8B45AEF36F05CEF02
:106CB20036F073EF36F07D500B0D030EF324D96ED0
:106CC200010EF420DA6EDE06000EDD5A7D500B0D49
:106CD200020EF324D96E010EF420DA6E000EDF6E7E
:106CE200C6EF36F07D500B0D030EF324D96E010E64
:106CF200F420DA6EDE2A000EDD227D500B0D020E2C
:106D0200F324D96E010EF420DA6E010EDF6EC6EFA7
:106D120036F07D500B0D020EF324D96E010EF420D5
:106D2200DA6EDF50D8B498EF36F09AEF36F0B1EF62
:106D320036F07D500B0D030EF324D96E010EF420B4
:106D4200DA6EDE2A000EDD227D500B0D020EF324D8
:106D5200D96E010EF420DA6E000EDF6EC6EF36F049
:106D62007D500B0D030EF324D96E010EF420DA6E62
:106D7200DE06000EDD5A7D500B0D020EF324D96E95
:106D8200010EF420DA6E010EDF6E96EC2CF00DC0CF
:106D920013F00EC014F0000E166E640E156E31EC78
:106DA2002FF014BEE0EF36F0145007E1080E135C2A
:106DB200D8B0DEEF36F0E0EF36F02AEF37F07D5054
:106DC2000B0D010EF324D96E010EF420DA6EDF50A2
:106DD200D8A4EEEF36F0F0EF36F02AEF37F07D5020
:106DE2000B0D030EF324D96E010EF420DA6E7D50E2
:106DF2000B0D070EF324E16E010EF420E26EDECFDE
:106E0200E6FFDDCFE5FF7D500B0D050EF324D96EB5
:106E1200010EF420DA6EDECF1DF0DDCF1EF0010E82
:106E22001D26000E1E227D500B0D090EF324D96E75
:106E3200010EF420DA6E1DC0DEFF1EC0DDFF7D50A4
:106E42000B0D010EF324D96E010EF420DA6E010E41
:106E5200DF6E7D2A2AEF36F0CD07D8A0CE070001DB
:106E6200CB51CC11D8A438EF37F03AEF37F04FEFCF
:106E720037F07F5007E10A0E7E5CD8B043EF37F05F
:106E820045EF37F04FEF37F0010E7E24016E000E12
:106E92007F20026EBFEC31F064EF37F0CB51CC11A2
:106EA200D8A456EF37F058EF37F064EF37F00A0EF8
:106EB2007E187F10D8A460EF37F062EF37F064EFEE
:106EC20037F006EC2DF01200000E096E000EA9EC50
:106ED2002EF0F10E096E7E0E0A6E86EC2BF0000E7D
:106EE200096E010EA9EC2EF0250E096E7E0E0A6EB9
:106EF20086EC2BF0000E096E020EA9EC2EF0250E88
:106F0200096E7E0E0A6E86EC2BF0000E096E030EE1
:106F1200A9EC2EF0F10E096E7E0E0A6E86EC2BF0B5
:106F2200000E136E000E126E124A132A13BEA3EF46
:106F320037F0500E125C460E1358D8A0A3EF37F06C
:106F4200A5EF37F095EF37F0000E096E000EA9ECB1
:106F52002EF0F10E096E7E0E0A6E86EC2BF0000EFC
:106F6200096E010EA9EC2EF0130E096E7F0E0A6E49
:106F720086EC2BF0000E096E020EA9EC2EF0570ED5
:106F8200096E7F0E0A6E86EC2BF0000E096E030E60
:106F9200A9EC2EF0F10E096E7E0E0A6E86EC2BF035
:106FA200000E156E000E146E144A152A15BEE3EF7C
:106FB20037F0500E145C460E1558D8A0E3EF37F0A8
:106FC200E5EF37F0D5EF37F0000E096E000EA9ECB1
:106FD2002EF0F10E096E7E0E0A6E86EC2BF0000E7C
:106FE200096E010EA9EC2EF0680E096E7F0E0A6E74
:106FF20086EC2BF0000E096E020EA9EC2EF0790E33
:10700200096E7F0E0A6E86EC2BF0000E096E030EDF
:10701200A9EC2EF0F10E096E7E0E0A6E86EC2BF0B4
:10702200000E176E000E166E164A172A17BE23EFB1
:1070320038F0500E165C460E1758D8A023EF38F0E1
:1070420025EF38F015EF38F0000E096E000EA9ECAE
:107052002EF0F10E096E7E0E0A6E86EC2BF0000EFB
:10706200096E010EA9EC2EF09B0E096E7F0E0A6EC0
:1070720086EC2BF0000E096E020EA9EC2EF0CE0E5D
:10708200096E7F0E0A6E86EC2BF0000E096E030E5F
:10709200A9EC2EF0F10E096E7E0E0A6E86EC2BF034
:1070A200000E196E000E186E184A192A19BE63EFE7
:1070B20038F0500E185C460E1958D8A063EF38F01D
:1070C20065EF38F055EF38F0000E096E000EA9ECAE
:1070D2002EF0F10E096E7E0E0A6E86EC2BF0000E7B
:1070E200096E010EA9EC2EF08A0E096E7F0E0A6E51
:1070F20086EC2BF0000E096E020EA9EC2EF0020EA9
:10710200096E7F0E0A6E86EC2BF0000E096E030EDE
:10711200A9EC2EF0F10E096E7E0E0A6E86EC2BF0B3
:10712200000E1B6E000E1A6E1A4A1B2A1BBEA3EF1C
:1071320038F0500E1A5C460E1B58D8A0A3EF38F058
:10714200A5EF38F095EF38F0000E096E000EA9ECAD
:107152002EF0F10E096E7E0E0A6E86EC2BF0000EFA
:10716200096E010EA9EC2EF0460E096E7F0E0A6E14
:1071720086EC2BF0000E096E020EA9EC2EF0240E06
:10718200096E7F0E0A6E86EC2BF0000E096E030E5E
:10719200A9EC2EF0F10E096E7E0E0A6E86EC2BF033
:1071A200000E1D6E000E1C6E1C4A1D2A1DBEE3EF52
:1071B20038F0500E1C5C460E1D58D8A0E3EF38F094
:1071C200E5EF38F0D5EF38F0000E096E000EA9ECAD
:1071D2002EF0F10E096E7E0E0A6E86EC2BF0000E7A
:1071E200096E010EA9EC2EF0CF0E096E7E0E0A6E0C
:1071F20086EC2BF0000E096E020EA9EC2EF0350E75
:10720200096E7F0E0A6E86EC2BF0000E096E030EDD
:10721200A9EC2EF0F10E096E7E0E0A6E86EC2BF0B2
:10722200000E1F6E000E1E6E1E4A1F2A1FBE23EF87
:1072320039F0500E1E5C460E1F58D8A023EF39F0CD
:1072420025EF39F015EF39F0000E096E000EA9ECAA
:107252002EF0F10E096E7E0E0A6E86EC2BF0000EF9
:10726200096E010EA9EC2EF08B0E096E7E0E0A6ECF
:1072720086EC2BF0000E096E020EA9EC2EF0AC0E7D
:10728200096E7F0E0A6E86EC2BF0000E096E030E5D
:10729200A9EC2EF0F10E096E7E0E0A6E86EC2BF032
:1072A200000E216E000E206E204A212A21BE63EFBD
:1072B20039F0500E205C460E2158D8A063EF39F009
:1072C20065EF39F055EF39F0000E096E000EA9ECAA
:1072D2002EF0F10E096E7E0E0A6E86EC2BF0000E79
:1072E200096E010EA9EC2EF0690E096E7E0E0A6E71
:1072F20086EC2BF0000E096E020EA9EC2EF0BD0EEC
:10730200096E7F0E0A6E86EC2BF0000E096E030EDC
:10731200A9EC2EF0F10E096E7E0E0A6E86EC2BF0B1
:10732200000E236E000E226E23BEA1EF39F0500E26
:10733200225C460E2358D8A0A1EF39F0A3EF39F012
:10734200A5EF39F0A9EF39F0224A232A95EF39F057
:10735200000E096E000EA9EC2EF0F10E096E7E0EE3
:107362000A6E86EC2BF0000E096E010EA9EC2EF0CF
:10737200580E096E7E0E0A6E86EC2BF0000E096E18
:10738200020EA9EC2EF0E00E096E7E0E0A6E86EC5D
:107392002BF0000E096E030EA9EC2EF0F10E096E11
:1073A2007E0E0A6E86EC2BF0000E256E000E246E09
:1073B20025BEE5EF39F0500E245C460E2558D8A0C4
:1073C200E5EF39F0E7EF39F0E9EF39F0EDEF39F0B9
:1073D200244A252AD9EF39F0000E096E000EA9ECD5
:1073E2002EF0F10E096E7E0E0A6E86EC2BF0000E68
:1073F200096E010EA9EC2EF0470E096E7E0E0A6E82
:1074020086EC2BF0000E096E020EA9EC2EF09C0EFB
:10741200096E7E0E0A6E86EC2BF0000E096E030ECC
:10742200A9EC2EF0F10E096E7E0E0A6E86EC2BF0A0
:10743200000E276E000E266E27BE29EF3AF0500E80
:10744200265C460E2758D8A029EF3AF02BEF3AF0E7
:107452002DEF3AF031EF3AF0264A272A1DEF3AF0A3
:10746200000E096E000EA9EC2EF0F10E096E7E0ED2
:107472000A6E86EC2BF0000E096E010EA9EC2EF0BE
:10748200360E096E7E0E0A6E86EC2BF0000E096E29
:10749200020EA9EC2EF07A0E096E7E0E0A6E86ECB2
:1074A2002BF0000E096E030EA9EC2EF0F10E096E00
:1074B2007E0E0A6E86EC2BF0000E296E000E286EF0
:1074C20029BE6DEF3AF0500E285C460E2958D8A01E
:1074D2006DEF3AF06FEF3AF071EF3AF075EF3AF084
:1074E200284A292A61EF3AF0000E2B6E000E2A6E0E
:1074F2002BBE85EF3AF0500E2A5C460E2B58D8A0D0
:1075020085EF3AF087EF3AF089EF3AF08DEF3AF0F3
:107512002A4A2B2A79EF3AF0000E2D6E000E2C6EBD
:107522002DBE9DEF3AF0500E2C5C460E2D58D8A081
:107532009DEF3AF09FEF3AF0A1EF3AF0A5EF3AF063
:107542002C4A2D2A91EF3AF0000E2F6E000E2E6E6D
:107552002FBEB5EF3AF0500E2E5C460E2F58D8A033
:10756200B5EF3AF0B7EF3AF0B9EF3AF0BDEF3AF0D3
:107572002E4A2F2AA9EF3AF0000E316E000E306E1D
:1075820031BECDEF3AF0500E305C460E3158D8A0E5
:10759200CDEF3AF0CFEF3AF0D1EF3AF0D5EF3AF043
:1075A200304A312AC1EF3AF0000E096E000EA9EC02
:1075B2002EF0F10E096E7E0E0A6E86EC2BF0000E96
:1075C200096E010EA9EC2EF0250E096E7E0E0A6ED2
:1075D20086EC2BF0000E096E020EA9EC2EF0250EA1
:1075E200096E7E0E0A6E86EC2BF0000E096E030EFB
:1075F200A9EC2EF0F10E096E7E0E0A6E86EC2BF0CF
:10760200020E096E010EA9EC2EF0F60E096E7F0E27
:107612000A6EEFEC2DF0020E096E020EA9EC2EF0AE
:10762200DF0E096E7F0E0A6EEFEC2DF021EF3BF0BC
:1076320000EC31F034EC2BF001C010F002C011F07C
:1076420010AC26EF3BF028EF3BF019EF3BF01200B5
:10765200000E7D6E030E7D6431EF3BF033EF3BF0A5
:1076620035EF3BF055EF3BF0000E766E7D50100D7E
:10767200800E0F6E000E106EF3500F26F450102283
:1076820076500F24D96E000E1020DA6E200EDF6EB7
:10769200762A0F0E766450EF3BF052EF3BF037EF55
:1076A2003BF07D2A2BEF3BF0000E7D6E0F0E7D64CA
:1076B2005DEF3BF05FEF3BF061EF3BF0C5EF3BF07E
:1076C2007D500B0D000EF324D96E010EF420DA6EFC
:1076D200DF50D8B46FEF3BF071EF3BF0C2EF3BF0FD
:1076E2007D500B0D020EF324D96E010EF420DA6EDA
:1076F200DF50D8A47FEF3BF081EF3BF087EF3BF008
:10770200000E166E050E156E8BEF3BF0000E166E18
:10771200040E156E7D500B0D030EF324D96E010E6F
:10772200F420DA6EDECF0FF0DDCF10F07D500B0DBE
:10773200050EF324D96E010EF420DA6EDECF01F0CD
:10774200DDCF02F0000E046E020E036E89EC2FF004
:10775200013A023AF00E021601500F0B0212F00E1D
:107762000116800E116E000E126E0150112602508B
:1077720012220F501124D96E10501220DA6E15C049
:10778200DFFF7D2A57EF3BF0000E7D6E0F0E7D640A
:10779200CDEF3BF0CFEF3BF0D1EF3BF0D1EF3DF03F
:1077A2007D500B0D010EF324D96E010EF420DA6E1A
:1077B200DF50D8B4DFEF3BF0E1EF3BF0CEEF3DF02E
:1077C2007D500B0D070EF324D96E010EF420DA6EF4
:1077D2007D500B0D030EF324E16E010EF420E26ED8
:1077E200DE50E61807E1DE50E618D8A4FBEF3BF0C6
:1077F200FDEF3BF079EF3CF07D500B0D090EF324C9
:10780200D96E010EF420DA6EDE04DE10D8A40CEF7D
:107812003CF00EEF3CF079EF3CF07D500B0D000E8A
:10782200F324D96E010EF420DA6EDF50D8B41CEFC7
:107832003CF01EEF3CF079EF3CF0080E7D6024EF47
:107842003CF026EF3CF079EF3CF07D500B0D020E40
:10785200F324D96E010EF420DA6EDF50D8A434EF8F
:107862003CF036EF3CF03CEF3CF0000E186E070E99
:10787200176E40EF3CF0000E186E060E176E7D502C
:107882000B0D070EF324D96E010EF420DA6EDECF53
:107892000FF0DDCF10F07D500B0D090EF324D96EE1
:1078A200010EF420DA6EDECF01F0DDCF02F0000E21
:1078B200046E020E036E89EC2FF0013A023AF00ECA
:1078C200021601500F0B0212F00E0116800E116EFD
:1078D200000E126E01501126025012220F50112476
:1078E200D96E10501220DA6E17C0DFFFCEEF3DF0D6
:1078F2007D500B0D070EF324D96E010EF420DA6EC3
:107902007D500B0D030EF324E16E010EF420E26EA6
:10791200DE50E61807E1DE50E618D8A493EF3CF0FB
:1079220095EF3CF00AEF3DF07D500B0D090EF3246C
:10793200D96E010EF420DA6E030EDE18DE10D8A422
:10794200A5EF3CF0A7EF3CF00AEF3DF07D500B0DA8
:10795200000EF324D96E010EF420DA6EDF50D8B493
:10796200B5EF3CF0B7EF3CF00AEF3DF07D500B0D68
:10797200020EF324D96E010EF420DA6EDF50D8A481
:10798200C5EF3CF0C7EF3CF0CDEF3CF0000E1A6EB5
:10799200070E196ED1EF3CF0000E1A6E060E196E2C
:1079A2007D500B0D070EF324D96E010EF420DA6E12
:1079B200DECF0FF0DDCF10F07D500B0D090EF3245A
:1079C200D96E010EF420DA6EDECF01F0DDCF02F0C7
:1079D200000E046E020E036E89EC2FF0013A023A99
:1079E200F00E021601500F0B0212F00E0116800E5D
:1079F200116E000E126E01501126025012220F500B
:107A02001124D96E10501220DA6E19C0DFFFCEEFAA
:107A12003DF07D500B0D070EF324D96E010EF420BC
:107A2200DA6EDE500001C31907E1DE50C419D8A492
:107A32001DEF3DF01FEF3DF07AEF3DF07D500B0D55
:107A4200090EF324D96E010EF420DA6EFF0E116EC8
:107A5200FF0E126E10EEC5F0E6CF13F0E5CF14F074
:107A62001150132612501422DE50131807E1DE5073
:107A72001418D8A43FEF3DF041EF3DF07AEF3DF00E
:107A82007D500B0D070EF324D96E010EF420DA6E31
:107A9200DECF0FF0DDCF10F07D500B0D090EF32479
:107AA200D96E010EF420DA6EDECF01F0DDCF02F0E6
:107AB200000E046E020E036E89EC2FF0013A023AB8
:107AC200F00E021601500F0B0212F00E0116800E7C
:107AD200116E000E126E01501126025012220F502A
:107AE2001124D96E10501220DA6E010EDF6ECEEF25
:107AF2003DF07D500B0D090EF324D96E010EF420DA
:107B0200DA6EDECF0FF0DDCF10F00FB08BEF3DF06D
:107B12008DEF3DF093EF3DF0000E1C6E030E1B6ED9
:107B220097EF3DF0000E1C6E020E1B6E7D500B0D8A
:107B3200070EF324D96E010EF420DA6EDECF0FF0B9
:107B4200DDCF10F07D500B0D090EF324D96E010E1E
:107B5200F420DA6EDECF01F0DDCF02F0000E046E0B
:107B6200020E036E89EC2FF0013A023AF00E021671
:107B720001500F0B0212F00E0116800E116E000E54
:107B8200126E01501126025012220F501124D96E8A
:107B920010501220DA6E1BC0DFFF7D2AC7EF3BF0C8
:107BA2000001C051D8B4D8EF3DF0DAEF3DF0FEEF5E
:107BB2003DF0C5C001F0C6C002F0000E046E020E18
:107BC200036E89EC2FF0013A023AF00E02160150D0
:107BD2000F0B0212F00E0116800E0F6E000E106EC9
:107BE20001500F26025010220001C3510F24D96EFA
:107BF200C4511020DA6E000EDF6EC151D8B404EF0A
:107C02003EF006EF3EF07BEF3EF0FF0E0F6EFF0EF2
:107C1200106E20EEC5F0DECF11F0DDCF12F00F5066
:107C2200112610501222C951111807E1CA51121817
:107C3200D8A41EEF3EF020EF3EF046EF3EF0C9C062
:107C420001F0CAC002F0000E046E020E036E89EC4F
:107C52002FF0013A023AF00E021601500F0B0212F7
:107C6200F00E0116800E0F6E000E106E01500F26E0
:107C7200025010220001C7510F24D96EC8511020A2
:107C8200DA6E010EDF6E7BEF3EF0C9B14BEF3EF0D4
:107C92004DEF3EF053EF3EF0000E1E6E030E1D6ED2
:107CA20057EF3EF0000E1E6E020E1D6EC9C001F0AF
:107CB200CAC002F0000E046E020E036E89EC2FF0B1
:107CC200013A023AF00E021601500F0B0212F00EA8
:107CD2000116800E0F6E000E106E01500F2602501C
:107CE20010220001C7510F24D96EC8511020DA6E3C
:107CF2001DC0DFFF000E7D6E030E7D6483EF3EF03C
:107D020085EF3EF087EF3EF0ADEF3EF0000E096EDC
:107D12007D50A9EC2EF0000E766E7D50100D800E77
:107D22000F6E000E106EF3500F26F4501022765094
:107D32000F24D96E000E1020DA6EDF50AEEC2BF05D
:107D4200762A0F0E7664A8EF3EF0AAEF3EF08EEF91
:107D52003EF07D2A7DEF3EF0030E0D6E72C008F0FC
:107D620073C009F0000E0B6E0A0E0A6E2FEC2CF097
:107D7200085003EC2CF0020E0D6E000E046E0A0E7B
:107D8200036E72C001F073C002F079EC2DF001C0F5
:107D920008F002C009F0000E0B6E0A0E0A6E2FECFC
:107DA2002CF0085003EC2CF0010E0D6E000E046E48
:107DB200640E036E72C001F073C002F079EC2DF014
:107DC20001C008F002C009F0000E0B6E0A0E0A6E26
:107DD2002FEC2CF0085003EC2CF0000E0D6E030E6D
:107DE200046EE80E036E72C001F073C002F079EC0B
:107DF2002DF001C008F002C009F0000E0B6E0A0E51
:107E02000A6E2FEC2CF0085003EC2CF058EC30F0FA
:107E12001200003F065B4F666D7D077F6F777C39EE
:107E22005E79717C2020202020202020202020200C
:107E320020207C007C202020434C4F4E45202020D7
:107E42002020207C007C20202020434C4F4E4520C7
:107E5200202020207C007C2020202020434C4F4EDC
:107E620045202020207C007C202020202020434C04
:107E72004F4E452020207C007C202020494E564138
:107E8200444552532020207C007C202020202020AA
:107E920020434C4F4E4520207C007C20202020494E
:107EA2004E56414445525320207C007C20566F633D
:107EB200652076656E63657521207C007C20566F97
:107EC20063652070657264657521207C007C2020CA
:107ED200202020202020434C4F4E45207C007C2037
:107EE20020202020494E564144455253207C007C9C
:107EF2002D2D2D2D2D2D2D2D2D2D2D2D2D2D7C008E
:107F02007C20202020202020202020494E56417C09
:107F1200007C202020202020202020202020204300
:107F22007C007C202020202020202020494E564109
:107F3200447C007C2020202020202020494E5641D5
:107F420044457C007C202020202020202020434CFF
:107F52004F4E457C007C2020202020202020202005
:107F6200202020497C007C2020202020202020204E
:107F7200202020434C7C007C202020202020202018
:107F820020202020494E7C007C2020202020202000
:107F9200202020434C4F4E7C007C2020202020209B
:107FA2002020202020434C4F7C007C2020202020B9
:107FB2002020494E56414445527C007C20202020FE
:107FC2002020494E5641444552537C007C202020BB
:107FD2002020202020202020494E567C00544F2073
:107FE20053544152542E2E2E007C2053636F7265DF
:0D7FF200203D200050524553532035000023
:020000040020DA
:08000000FFFFFFFFFFFFFFFF00
:020000040030CA
:0E000000FF027100FF8380FF0FC00FE00F4072
:00000001FF
